{
  "contractName": "MyNftToken",
  "abi": [
    {
      "inputs": [],
      "stateMutability": "nonpayable",
      "type": "constructor"
    },
    {
      "anonymous": false,
      "inputs": [
        {
          "indexed": true,
          "internalType": "address",
          "name": "_from",
          "type": "address"
        },
        {
          "indexed": true,
          "internalType": "address",
          "name": "_to",
          "type": "address"
        },
        {
          "indexed": true,
          "internalType": "uint256",
          "name": "_tokenId",
          "type": "uint256"
        }
      ],
      "name": "Transfer",
      "type": "event"
    },
    {
      "inputs": [
        {
          "internalType": "address",
          "name": "_from",
          "type": "address"
        },
        {
          "internalType": "address",
          "name": "_to",
          "type": "address"
        },
        {
          "internalType": "uint256",
          "name": "_tokenId",
          "type": "uint256"
        }
      ],
      "name": "_transfer",
      "outputs": [],
      "stateMutability": "payable",
      "type": "function"
    },
    {
      "inputs": [
        {
          "internalType": "address",
          "name": "_owner",
          "type": "address"
        }
      ],
      "name": "balanceOf",
      "outputs": [
        {
          "internalType": "uint256",
          "name": "",
          "type": "uint256"
        }
      ],
      "stateMutability": "view",
      "type": "function"
    },
    {
      "inputs": [
        {
          "internalType": "uint256",
          "name": "_tokenId",
          "type": "uint256"
        }
      ],
      "name": "ownerOf",
      "outputs": [
        {
          "internalType": "address",
          "name": "",
          "type": "address"
        }
      ],
      "stateMutability": "view",
      "type": "function"
    },
    {
      "inputs": [
        {
          "internalType": "string",
          "name": "_metadataurl",
          "type": "string"
        },
        {
          "internalType": "uint256",
          "name": "_tokenId",
          "type": "uint256"
        }
      ],
      "name": "tokenURI",
      "outputs": [
        {
          "internalType": "string",
          "name": "",
          "type": "string"
        }
      ],
      "stateMutability": "pure",
      "type": "function"
    },
    {
      "inputs": [
        {
          "internalType": "uint256",
          "name": "_tokenId",
          "type": "uint256"
        }
      ],
      "name": "mint",
      "outputs": [],
      "stateMutability": "nonpayable",
      "type": "function"
    }
  ],
  "bytecode": "0x60806040523480156200001157600080fd5b506040518060400160405280600a81526020017f6d794e4654546f6b656e00000000000000000000000000000000000000000000815250600390805190602001906200005f929190620000b4565b506040518060400160405280600b81526020017f6d794e465453796d626f6c00000000000000000000000000000000000000000081525060049080519060200190620000ad929190620000b4565b50620001c9565b828054620000c29062000193565b90600052602060002090601f016020900481019282620000e6576000855562000132565b82601f106200010157805160ff191683800117855562000132565b8280016001018555821562000132579182015b828111156200013157825182559160200191906001019062000114565b5b50905062000141919062000145565b5090565b5b808211156200016057600081600090555060010162000146565b5090565b7f4e487b7100000000000000000000000000000000000000000000000000000000600052602260045260246000fd5b60006002820490506001821680620001ac57607f821691505b60208210811415620001c357620001c262000164565b5b50919050565b610c3180620001d96000396000f3fe60806040526004361061004a5760003560e01c806330e0789e1461004f5780636352211e1461006b57806370a08231146100a85780639b330cb9146100e5578063a0712d6814610122575b600080fd5b61006960048036038101906100649190610673565b61014b565b005b34801561007757600080fd5b50610092600480360381019061008d91906106c6565b6102e6565b60405161009f9190610702565b60405180910390f35b3480156100b457600080fd5b506100cf60048036038101906100ca919061071d565b610322565b6040516100dc9190610759565b60405180910390f35b3480156100f157600080fd5b5061010c600480360381019061010791906108ba565b61036b565b604051610119919061099e565b60405180910390f35b34801561012e57600080fd5b50610149600480360381019061014491906106c6565b610422565b005b8273ffffffffffffffffffffffffffffffffffffffff1661016b826102e6565b73ffffffffffffffffffffffffffffffffffffffff161461018b57600080fd5b8160008083815260200190815260200160002060006101000a81548173ffffffffffffffffffffffffffffffffffffffff021916908373ffffffffffffffffffffffffffffffffffffffff160217905550600160008473ffffffffffffffffffffffffffffffffffffffff1673ffffffffffffffffffffffffffffffffffffffff168152602001908152602001600020600081548092919061022c906109ef565b9190505550600160008373ffffffffffffffffffffffffffffffffffffffff1673ffffffffffffffffffffffffffffffffffffffff168152602001908152602001600020600081548092919061028190610a19565b9190505550808273ffffffffffffffffffffffffffffffffffffffff168473ffffffffffffffffffffffffffffffffffffffff167fddf252ad1be2c89b69c2b068fc378daa952ba7f163c4a11628f55a4df523b3ef60405160405180910390a4505050565b600080600083815260200190815260200160002060009054906101000a900473ffffffffffffffffffffffffffffffffffffffff169050919050565b6000600160008373ffffffffffffffffffffffffffffffffffffffff1673ffffffffffffffffffffffffffffffffffffffff168152602001908152602001600020549050919050565b60608273__Uint2Str______________________________63f76f950e846040518263ffffffff1660e01b81526004016103a59190610a71565b60006040518083038186803b1580156103bd57600080fd5b505af41580156103d1573d6000803e3d6000fd5b505050506040513d6000823e3d601f19601f820116820180604052508101906103fa9190610afc565b60405160200161040b929190610b81565b604051602081830303815290604052905092915050565b61042c338261042f565b50565b806002600082815260200190815260200160002060009054906101000a900460ff161561045b57600080fd5b82600073ffffffffffffffffffffffffffffffffffffffff168173ffffffffffffffffffffffffffffffffffffffff16141561049657600080fd5b8360008085815260200190815260200160002060006101000a81548173ffffffffffffffffffffffffffffffffffffffff021916908373ffffffffffffffffffffffffffffffffffffffff16021790555060018060008673ffffffffffffffffffffffffffffffffffffffff1673ffffffffffffffffffffffffffffffffffffffff16815260200190815260200160002060008282546105369190610ba5565b9250508190555060016002600085815260200190815260200160002060006101000a81548160ff021916908315150217905550823373ffffffffffffffffffffffffffffffffffffffff16600073ffffffffffffffffffffffffffffffffffffffff167fddf252ad1be2c89b69c2b068fc378daa952ba7f163c4a11628f55a4df523b3ef60405160405180910390a450505050565b6000604051905090565b600080fd5b600080fd5b600073ffffffffffffffffffffffffffffffffffffffff82169050919050565b600061060a826105df565b9050919050565b61061a816105ff565b811461062557600080fd5b50565b60008135905061063781610611565b92915050565b6000819050919050565b6106508161063d565b811461065b57600080fd5b50565b60008135905061066d81610647565b92915050565b60008060006060848603121561068c5761068b6105d5565b5b600061069a86828701610628565b93505060206106ab86828701610628565b92505060406106bc8682870161065e565b9150509250925092565b6000602082840312156106dc576106db6105d5565b5b60006106ea8482850161065e565b91505092915050565b6106fc816105ff565b82525050565b600060208201905061071760008301846106f3565b92915050565b600060208284031215610733576107326105d5565b5b600061074184828501610628565b91505092915050565b6107538161063d565b82525050565b600060208201905061076e600083018461074a565b92915050565b600080fd5b600080fd5b6000601f19601f8301169050919050565b7f4e487b7100000000000000000000000000000000000000000000000000000000600052604160045260246000fd5b6107c78261077e565b810181811067ffffffffffffffff821117156107e6576107e561078f565b5b80604052505050565b60006107f96105cb565b905061080582826107be565b919050565b600067ffffffffffffffff8211156108255761082461078f565b5b61082e8261077e565b9050602081019050919050565b82818337600083830152505050565b600061085d6108588461080a565b6107ef565b90508281526020810184848401111561087957610878610779565b5b61088484828561083b565b509392505050565b600082601f8301126108a1576108a0610774565b5b81356108b184826020860161084a565b91505092915050565b600080604083850312156108d1576108d06105d5565b5b600083013567ffffffffffffffff8111156108ef576108ee6105da565b5b6108fb8582860161088c565b925050602061090c8582860161065e565b9150509250929050565b600081519050919050565b600082825260208201905092915050565b60005b83811015610950578082015181840152602081019050610935565b8381111561095f576000848401525b50505050565b600061097082610916565b61097a8185610921565b935061098a818560208601610932565b6109938161077e565b840191505092915050565b600060208201905081810360008301526109b88184610965565b905092915050565b7f4e487b7100000000000000000000000000000000000000000000000000000000600052601160045260246000fd5b60006109fa8261063d565b91506000821415610a0e57610a0d6109c0565b5b600182039050919050565b6000610a248261063d565b91507fffffffffffffffffffffffffffffffffffffffffffffffffffffffffffffffff821415610a5757610a566109c0565b5b600182019050919050565b610a6b8161063d565b82525050565b6000602082019050610a866000830184610a62565b92915050565b6000610a9f610a9a8461080a565b6107ef565b905082815260208101848484011115610abb57610aba610779565b5b610ac6848285610932565b509392505050565b600082601f830112610ae357610ae2610774565b5b8151610af3848260208601610a8c565b91505092915050565b600060208284031215610b1257610b116105d5565b5b600082015167ffffffffffffffff811115610b3057610b2f6105da565b5b610b3c84828501610ace565b91505092915050565b600081905092915050565b6000610b5b82610916565b610b658185610b45565b9350610b75818560208601610932565b80840191505092915050565b6000610b8d8285610b50565b9150610b998284610b50565b91508190509392505050565b6000610bb08261063d565b9150610bbb8361063d565b9250827fffffffffffffffffffffffffffffffffffffffffffffffffffffffffffffffff03821115610bf057610bef6109c0565b5b82820190509291505056fea2646970667358221220f5440b924626940be65da792071919de1f05f1750d4f55e6a2f7d8d14bd8267564736f6c63430008090033",
  "immutableReferences": {},
  "source": "// SPDX-License-Identifier: UNLICENSED\r\npragma solidity ^0.8.6;\r\n\r\nimport \"./myNftErc721.sol\";\r\n\r\ncontract MyNftToken is myNftErc721 {\r\n    // Token name\r\n    string private _name;\r\n\r\n    // Token symbol\r\n    string private _symbol;\r\n\r\n    constructor() {\r\n        _name = \"myNFTToken\";\r\n        _symbol = \"myNFTSymbol\";\r\n    }\r\n\r\n    function mint(uint256 _tokenId) external {\r\n        _mint(msg.sender, _tokenId);\r\n    }\r\n}\r\n",
  "sourcePath": "C:\\Users\\hp\\Documents\\GitHub\\fisrtTask-ShaheerAndErmal\\contracts\\MyNftToken.sol",
  "compiler": {
    "name": "solc",
    "version": "0.8.9+commit.e5eed63a.Emscripten.clang"
  },
  "schemaVersion": "3.4.3",
  "updatedAt": "2021-11-02T20:39:15.380Z",
  "devdoc": {
    "kind": "dev",
    "methods": {},
    "version": 1
  },
  "userdoc": {
    "kind": "user",
    "methods": {},
    "version": 1
  }
}