{
  "contractName": "MyNftToken",
  "abi": [
    {
      "inputs": [],
      "stateMutability": "nonpayable",
      "type": "constructor"
    },
    {
      "anonymous": false,
      "inputs": [
        {
          "indexed": true,
          "internalType": "address",
          "name": "_from",
          "type": "address"
        },
        {
          "indexed": true,
          "internalType": "address",
          "name": "_to",
          "type": "address"
        },
        {
          "indexed": true,
          "internalType": "uint256",
          "name": "_tokenId",
          "type": "uint256"
        }
      ],
      "name": "Transfer",
      "type": "event"
    },
    {
      "inputs": [
        {
          "internalType": "address",
          "name": "_from",
          "type": "address"
        },
        {
          "internalType": "address",
          "name": "_to",
          "type": "address"
        },
        {
          "internalType": "uint256",
          "name": "_tokenId",
          "type": "uint256"
        }
      ],
      "name": "_transfer",
      "outputs": [],
      "stateMutability": "payable",
      "type": "function"
    },
    {
      "inputs": [
        {
          "internalType": "address",
          "name": "_owner",
          "type": "address"
        }
      ],
      "name": "balanceOf",
      "outputs": [
        {
          "internalType": "uint256",
          "name": "",
          "type": "uint256"
        }
      ],
      "stateMutability": "view",
      "type": "function"
    },
    {
      "inputs": [
        {
          "internalType": "uint256",
          "name": "",
          "type": "uint256"
        }
      ],
      "name": "nftTokens",
      "outputs": [
        {
          "internalType": "string",
          "name": "",
          "type": "string"
        }
      ],
      "stateMutability": "view",
      "type": "function"
    },
    {
      "inputs": [
        {
          "internalType": "uint256",
          "name": "_tokenId",
          "type": "uint256"
        }
      ],
      "name": "ownerOf",
      "outputs": [
        {
          "internalType": "address",
          "name": "",
          "type": "address"
        }
      ],
      "stateMutability": "view",
      "type": "function"
    },
    {
      "inputs": [
        {
          "internalType": "string",
          "name": "_nameOfNft",
          "type": "string"
        }
      ],
      "name": "mint",
      "outputs": [],
      "stateMutability": "nonpayable",
      "type": "function"
    }
  ],
  "bytecode": "0x60806040523480156200001157600080fd5b506040518060400160405280600a81526020017f6d794e4654546f6b656e00000000000000000000000000000000000000000000815250600390805190602001906200005f929190620000b4565b506040518060400160405280600b81526020017f6d794e465453796d626f6c00000000000000000000000000000000000000000081525060049080519060200190620000ad929190620000b4565b50620001c9565b828054620000c29062000193565b90600052602060002090601f016020900481019282620000e6576000855562000132565b82601f106200010157805160ff191683800117855562000132565b8280016001018555821562000132579182015b828111156200013157825182559160200191906001019062000114565b5b50905062000141919062000145565b5090565b5b808211156200016057600081600090555060010162000146565b5090565b7f4e487b7100000000000000000000000000000000000000000000000000000000600052602260045260246000fd5b60006002820490506001821680620001ac57607f821691505b60208210811415620001c357620001c262000164565b5b50919050565b610d1980620001d96000396000f3fe60806040526004361061004a5760003560e01c806330e0789e1461004f5780636352211e1461006b57806370a08231146100a8578063d85d3d27146100e5578063e68b09441461010e575b600080fd5b610069600480360381019061006491906107c9565b61014b565b005b34801561007757600080fd5b50610092600480360381019061008d919061081c565b6102e6565b60405161009f9190610858565b60405180910390f35b3480156100b457600080fd5b506100cf60048036038101906100ca9190610873565b610322565b6040516100dc91906108af565b60405180910390f35b3480156100f157600080fd5b5061010c60048036038101906101079190610a10565b61036b565b005b34801561011a57600080fd5b506101356004803603810190610130919061081c565b61043a565b6040516101429190610ae1565b60405180910390f35b8273ffffffffffffffffffffffffffffffffffffffff1661016b826102e6565b73ffffffffffffffffffffffffffffffffffffffff161461018b57600080fd5b8160008083815260200190815260200160002060006101000a81548173ffffffffffffffffffffffffffffffffffffffff021916908373ffffffffffffffffffffffffffffffffffffffff160217905550600160008473ffffffffffffffffffffffffffffffffffffffff1673ffffffffffffffffffffffffffffffffffffffff168152602001908152602001600020600081548092919061022c90610b32565b9190505550600160008373ffffffffffffffffffffffffffffffffffffffff1673ffffffffffffffffffffffffffffffffffffffff168152602001908152602001600020600081548092919061028190610b5c565b9190505550808273ffffffffffffffffffffffffffffffffffffffff168473ffffffffffffffffffffffffffffffffffffffff167fddf252ad1be2c89b69c2b068fc378daa952ba7f163c4a11628f55a4df523b3ef60405160405180910390a4505050565b600080600083815260200190815260200160002060009054906101000a900473ffffffffffffffffffffffffffffffffffffffff169050919050565b6000600160008373ffffffffffffffffffffffffffffffffffffffff1673ffffffffffffffffffffffffffffffffffffffff168152602001908152602001600020549050919050565b8060068160405161037c9190610be1565b908152602001604051809103902060009054906101000a900460ff16156103a257600080fd5b6005829080600181540180825580915050600190039060005260206000200160009091909190915090805190602001906103dd92919061067e565b50600060016005805490506103f29190610bf8565b90506103fe33826104e6565b60016006846040516104109190610be1565b908152602001604051809103902060006101000a81548160ff021916908315150217905550505050565b6005818154811061044a57600080fd5b90600052602060002001600091509050805461046590610c5b565b80601f016020809104026020016040519081016040528092919081815260200182805461049190610c5b565b80156104de5780601f106104b3576101008083540402835291602001916104de565b820191906000526020600020905b8154815290600101906020018083116104c157829003601f168201915b505050505081565b600073ffffffffffffffffffffffffffffffffffffffff168273ffffffffffffffffffffffffffffffffffffffff16141561052057600080fd5b6002600082815260200190815260200160002060009054906101000a900460ff161561054b57600080fd5b8160008083815260200190815260200160002060006101000a81548173ffffffffffffffffffffffffffffffffffffffff021916908373ffffffffffffffffffffffffffffffffffffffff16021790555060018060008473ffffffffffffffffffffffffffffffffffffffff1673ffffffffffffffffffffffffffffffffffffffff16815260200190815260200160002060008282546105eb9190610c8d565b9250508190555060016002600083815260200190815260200160002060006101000a81548160ff021916908315150217905550803373ffffffffffffffffffffffffffffffffffffffff16600073ffffffffffffffffffffffffffffffffffffffff167fddf252ad1be2c89b69c2b068fc378daa952ba7f163c4a11628f55a4df523b3ef60405160405180910390a45050565b82805461068a90610c5b565b90600052602060002090601f0160209004810192826106ac57600085556106f3565b82601f106106c557805160ff19168380011785556106f3565b828001600101855582156106f3579182015b828111156106f25782518255916020019190600101906106d7565b5b5090506107009190610704565b5090565b5b8082111561071d576000816000905550600101610705565b5090565b6000604051905090565b600080fd5b600080fd5b600073ffffffffffffffffffffffffffffffffffffffff82169050919050565b600061076082610735565b9050919050565b61077081610755565b811461077b57600080fd5b50565b60008135905061078d81610767565b92915050565b6000819050919050565b6107a681610793565b81146107b157600080fd5b50565b6000813590506107c38161079d565b92915050565b6000806000606084860312156107e2576107e161072b565b5b60006107f08682870161077e565b93505060206108018682870161077e565b9250506040610812868287016107b4565b9150509250925092565b6000602082840312156108325761083161072b565b5b6000610840848285016107b4565b91505092915050565b61085281610755565b82525050565b600060208201905061086d6000830184610849565b92915050565b6000602082840312156108895761088861072b565b5b60006108978482850161077e565b91505092915050565b6108a981610793565b82525050565b60006020820190506108c460008301846108a0565b92915050565b600080fd5b600080fd5b6000601f19601f8301169050919050565b7f4e487b7100000000000000000000000000000000000000000000000000000000600052604160045260246000fd5b61091d826108d4565b810181811067ffffffffffffffff8211171561093c5761093b6108e5565b5b80604052505050565b600061094f610721565b905061095b8282610914565b919050565b600067ffffffffffffffff82111561097b5761097a6108e5565b5b610984826108d4565b9050602081019050919050565b82818337600083830152505050565b60006109b36109ae84610960565b610945565b9050828152602081018484840111156109cf576109ce6108cf565b5b6109da848285610991565b509392505050565b600082601f8301126109f7576109f66108ca565b5b8135610a078482602086016109a0565b91505092915050565b600060208284031215610a2657610a2561072b565b5b600082013567ffffffffffffffff811115610a4457610a43610730565b5b610a50848285016109e2565b91505092915050565b600081519050919050565b600082825260208201905092915050565b60005b83811015610a93578082015181840152602081019050610a78565b83811115610aa2576000848401525b50505050565b6000610ab382610a59565b610abd8185610a64565b9350610acd818560208601610a75565b610ad6816108d4565b840191505092915050565b60006020820190508181036000830152610afb8184610aa8565b905092915050565b7f4e487b7100000000000000000000000000000000000000000000000000000000600052601160045260246000fd5b6000610b3d82610793565b91506000821415610b5157610b50610b03565b5b600182039050919050565b6000610b6782610793565b91507fffffffffffffffffffffffffffffffffffffffffffffffffffffffffffffffff821415610b9a57610b99610b03565b5b600182019050919050565b600081905092915050565b6000610bbb82610a59565b610bc58185610ba5565b9350610bd5818560208601610a75565b80840191505092915050565b6000610bed8284610bb0565b915081905092915050565b6000610c0382610793565b9150610c0e83610793565b925082821015610c2157610c20610b03565b5b828203905092915050565b7f4e487b7100000000000000000000000000000000000000000000000000000000600052602260045260246000fd5b60006002820490506001821680610c7357607f821691505b60208210811415610c8757610c86610c2c565b5b50919050565b6000610c9882610793565b9150610ca383610793565b9250827fffffffffffffffffffffffffffffffffffffffffffffffffffffffffffffffff03821115610cd857610cd7610b03565b5b82820190509291505056fea26469706673582212200bcb8b882df18862e66fa1692ff54d6f3f9f3a702adb78868297d07f1e52cffd64736f6c63430008090033",
  "immutableReferences": {},
  "source": "// SPDX-License-Identifier: UNLICENSED\r\npragma solidity ^0.8.6;\r\n\r\nimport \"./myNftErc721.sol\";\r\n\r\ncontract MyNftToken is myNftErc721 {\r\n    // Token name\r\n    string private _name;\r\n\r\n    // Token symbol\r\n    string private _symbol;\r\n\r\n    // All our nft tokens\r\n    string[] public nftTokens;\r\n\r\n    mapping(string => bool) _nameOfNftExists;\r\n\r\n    // Check if we can access the length from front-end\r\n    // Total number of tokens in block chain\r\n    // uint public totalSupply =0;\r\n\r\n    constructor() {\r\n        _name = \"myNFTToken\";\r\n        _symbol = \"myNFTSymbol\";\r\n    }\r\n\r\n    // Names for our nft to be unique\r\n    modifier uniqueName(string memory _nameOfNft) {\r\n        require(!_nameOfNftExists[_nameOfNft]);\r\n        _;\r\n    }\r\n\r\n    function mint(string memory _nameOfNft) external uniqueName(_nameOfNft) {\r\n        nftTokens.push(_nameOfNft);\r\n        uint256 id = nftTokens.length - 1;\r\n        _mint(msg.sender, id);\r\n        _nameOfNftExists[_nameOfNft] = true;\r\n        // totalSupply++;\r\n    }\r\n}\r\n",
  "sourcePath": "C:\\Users\\hp\\Documents\\GitHub\\fisrtTask-ShaheerAndErmal\\contracts\\MyNftToken.sol",
  "compiler": {
    "name": "solc",
    "version": "0.8.9+commit.e5eed63a.Emscripten.clang"
  },
  "schemaVersion": "3.4.3",
  "updatedAt": "2021-11-02T13:41:05.969Z",
  "devdoc": {
    "kind": "dev",
    "methods": {},
    "version": 1
  },
  "userdoc": {
    "kind": "user",
    "methods": {},
    "version": 1
  }
}