{
  "contractName": "myNftErc721",
  "abi": [
    {
      "anonymous": false,
      "inputs": [
        {
          "indexed": true,
          "internalType": "address",
          "name": "_from",
          "type": "address"
        },
        {
          "indexed": true,
          "internalType": "address",
          "name": "_to",
          "type": "address"
        },
        {
          "indexed": true,
          "internalType": "uint256",
          "name": "_tokenId",
          "type": "uint256"
        }
      ],
      "name": "Transfer",
      "type": "event"
    },
    {
      "inputs": [
        {
          "internalType": "address",
          "name": "_owner",
          "type": "address"
        }
      ],
      "name": "balanceOf",
      "outputs": [
        {
          "internalType": "uint256",
          "name": "",
          "type": "uint256"
        }
      ],
      "stateMutability": "view",
      "type": "function"
    },
    {
      "inputs": [
        {
          "internalType": "uint256",
          "name": "_tokenId",
          "type": "uint256"
        }
      ],
      "name": "ownerOf",
      "outputs": [
        {
          "internalType": "address",
          "name": "",
          "type": "address"
        }
      ],
      "stateMutability": "view",
      "type": "function"
    },
    {
      "inputs": [
        {
          "internalType": "address",
          "name": "_from",
          "type": "address"
        },
        {
          "internalType": "address",
          "name": "_to",
          "type": "address"
        },
        {
          "internalType": "uint256",
          "name": "_tokenId",
          "type": "uint256"
        }
      ],
      "name": "_transfer",
      "outputs": [],
      "stateMutability": "payable",
      "type": "function"
    }
  ],
  "bytecode": "0x608060405234801561001057600080fd5b50610561806100206000396000f3fe6080604052600436106100345760003560e01c806330e0789e146100395780636352211e1461005557806370a0823114610092575b600080fd5b610053600480360381019061004e9190610388565b6100cf565b005b34801561006157600080fd5b5061007c600480360381019061007791906103db565b61026a565b6040516100899190610417565b60405180910390f35b34801561009e57600080fd5b506100b960048036038101906100b49190610432565b6102a6565b6040516100c6919061046e565b60405180910390f35b8273ffffffffffffffffffffffffffffffffffffffff166100ef8261026a565b73ffffffffffffffffffffffffffffffffffffffff161461010f57600080fd5b8160008083815260200190815260200160002060006101000a81548173ffffffffffffffffffffffffffffffffffffffff021916908373ffffffffffffffffffffffffffffffffffffffff160217905550600160008473ffffffffffffffffffffffffffffffffffffffff1673ffffffffffffffffffffffffffffffffffffffff16815260200190815260200160002060008154809291906101b0906104b8565b9190505550600160008373ffffffffffffffffffffffffffffffffffffffff1673ffffffffffffffffffffffffffffffffffffffff1681526020019081526020016000206000815480929190610205906104e2565b9190505550808273ffffffffffffffffffffffffffffffffffffffff168473ffffffffffffffffffffffffffffffffffffffff167fddf252ad1be2c89b69c2b068fc378daa952ba7f163c4a11628f55a4df523b3ef60405160405180910390a4505050565b600080600083815260200190815260200160002060009054906101000a900473ffffffffffffffffffffffffffffffffffffffff169050919050565b6000600160008373ffffffffffffffffffffffffffffffffffffffff1673ffffffffffffffffffffffffffffffffffffffff168152602001908152602001600020549050919050565b600080fd5b600073ffffffffffffffffffffffffffffffffffffffff82169050919050565b600061031f826102f4565b9050919050565b61032f81610314565b811461033a57600080fd5b50565b60008135905061034c81610326565b92915050565b6000819050919050565b61036581610352565b811461037057600080fd5b50565b6000813590506103828161035c565b92915050565b6000806000606084860312156103a1576103a06102ef565b5b60006103af8682870161033d565b93505060206103c08682870161033d565b92505060406103d186828701610373565b9150509250925092565b6000602082840312156103f1576103f06102ef565b5b60006103ff84828501610373565b91505092915050565b61041181610314565b82525050565b600060208201905061042c6000830184610408565b92915050565b600060208284031215610448576104476102ef565b5b60006104568482850161033d565b91505092915050565b61046881610352565b82525050565b6000602082019050610483600083018461045f565b92915050565b7f4e487b7100000000000000000000000000000000000000000000000000000000600052601160045260246000fd5b60006104c382610352565b915060008214156104d7576104d6610489565b5b600182039050919050565b60006104ed82610352565b91507fffffffffffffffffffffffffffffffffffffffffffffffffffffffffffffffff8214156105205761051f610489565b5b60018201905091905056fea264697066735822122058d23c0e38db5d6a88a68b5890b15ff279f8558a0c7e6582d63890ce452c3cc564736f6c63430008090033",
  "immutableReferences": {},
  "source": "// SPDX-License-Identifier: UNLICENSED\r\npragma solidity ^0.8.6;\r\n\r\ncontract myNftErc721 {\r\n    // Mapping tokend Id to owners\r\n    mapping(uint256 => address) private _owners;\r\n\r\n    // Mapping owner address to token count\r\n    mapping(address => uint256) private _balances;\r\n\r\n    mapping(uint256 => bool) tokenExist;\r\n\r\n    event Transfer(\r\n        address indexed _from,\r\n        address indexed _to,\r\n        uint256 indexed _tokenId\r\n    );\r\n\r\n    function balanceOf(address _owner) external view returns (uint256) {\r\n        return _balances[_owner];\r\n    }\r\n\r\n    function ownerOf(uint256 _tokenId) public view returns (address) {\r\n        return _owners[_tokenId];\r\n    }\r\n\r\n    function _transfer(\r\n        address _from,\r\n        address _to,\r\n        uint256 _tokenId\r\n    ) external payable {\r\n        require(ownerOf(_tokenId) == _from);\r\n\r\n        _owners[_tokenId] = _to;\r\n        _balances[_from]--;\r\n        _balances[_to]++;\r\n\r\n        emit Transfer(_from, _to, _tokenId);\r\n    }\r\n\r\n    function _mint(address _to, uint256 _tokenId) internal {\r\n        require(_to != address(0));\r\n        require(!tokenExist[_tokenId]);\r\n        _owners[_tokenId] = _to;\r\n        _balances[_to] += 1;\r\n        tokenExist[_tokenId] = true;\r\n\r\n        emit Transfer(address(0), msg.sender, _tokenId);\r\n    }\r\n}\r\n",
  "sourcePath": "C:\\Users\\hp\\Documents\\GitHub\\fisrtTask-ShaheerAndErmal\\contracts\\myNftErc721.sol",
  "compiler": {
    "name": "solc",
    "version": "0.8.9+commit.e5eed63a.Emscripten.clang"
  },
  "schemaVersion": "3.4.3",
  "updatedAt": "2021-11-02T13:56:40.316Z",
  "devdoc": {
    "kind": "dev",
    "methods": {},
    "version": 1
  },
  "userdoc": {
    "kind": "user",
    "methods": {},
    "version": 1
  }
}