{
  "contractName": "MyNftToken",
  "abi": [
    {
      "inputs": [],
      "stateMutability": "nonpayable",
      "type": "constructor"
    },
    {
      "anonymous": false,
      "inputs": [
        {
          "indexed": true,
          "internalType": "address",
          "name": "_from",
          "type": "address"
        },
        {
          "indexed": true,
          "internalType": "address",
          "name": "_to",
          "type": "address"
        },
        {
          "indexed": true,
          "internalType": "uint256",
          "name": "_tokenId",
          "type": "uint256"
        }
      ],
      "name": "Transfer",
      "type": "event"
    },
    {
      "inputs": [
        {
          "internalType": "address",
          "name": "_from",
          "type": "address"
        },
        {
          "internalType": "address",
          "name": "_to",
          "type": "address"
        },
        {
          "internalType": "uint256",
          "name": "_tokenId",
          "type": "uint256"
        }
      ],
      "name": "_transfer",
      "outputs": [],
      "stateMutability": "payable",
      "type": "function"
    },
    {
      "inputs": [
        {
          "internalType": "address",
          "name": "_owner",
          "type": "address"
        }
      ],
      "name": "balanceOf",
      "outputs": [
        {
          "internalType": "uint256",
          "name": "",
          "type": "uint256"
        }
      ],
      "stateMutability": "view",
      "type": "function"
    },
    {
      "inputs": [
        {
          "internalType": "uint256",
          "name": "_tokenId",
          "type": "uint256"
        }
      ],
      "name": "ownerOf",
      "outputs": [
        {
          "internalType": "address",
          "name": "",
          "type": "address"
        }
      ],
      "stateMutability": "view",
      "type": "function"
    },
    {
      "inputs": [
        {
          "internalType": "uint256",
          "name": "_tokenId",
          "type": "uint256"
        }
      ],
      "name": "mint",
      "outputs": [],
      "stateMutability": "nonpayable",
      "type": "function"
    }
  ],
  "bytecode": "0x608060405234801561001057600080fd5b506040518060400160405280600a81526020017f6d794e4654546f6b656e000000000000000000000000000000000000000000008152506003908051906020019061005c9291906100ae565b506040518060400160405280600b81526020017f6d794e465453796d626f6c000000000000000000000000000000000000000000815250600490805190602001906100a89291906100ae565b506101b2565b8280546100ba90610180565b90600052602060002090601f0160209004810192826100dc5760008555610123565b82601f106100f557805160ff1916838001178555610123565b82800160010185558215610123579182015b82811115610122578251825591602001919060010190610107565b5b5090506101309190610134565b5090565b5b8082111561014d576000816000905550600101610135565b5090565b7f4e487b7100000000000000000000000000000000000000000000000000000000600052602260045260246000fd5b6000600282049050600182168061019857607f821691505b602082108114156101ac576101ab610151565b5b50919050565b610794806101c16000396000f3fe60806040526004361061003f5760003560e01c806330e0789e146100445780636352211e1461006057806370a082311461009d578063a0712d68146100da575b600080fd5b61005e60048036038101906100599190610565565b610103565b005b34801561006c57600080fd5b50610087600480360381019061008291906105b8565b61029e565b60405161009491906105f4565b60405180910390f35b3480156100a957600080fd5b506100c460048036038101906100bf919061060f565b6102da565b6040516100d1919061064b565b60405180910390f35b3480156100e657600080fd5b5061010160048036038101906100fc91906105b8565b610323565b005b8273ffffffffffffffffffffffffffffffffffffffff166101238261029e565b73ffffffffffffffffffffffffffffffffffffffff161461014357600080fd5b8160008083815260200190815260200160002060006101000a81548173ffffffffffffffffffffffffffffffffffffffff021916908373ffffffffffffffffffffffffffffffffffffffff160217905550600160008473ffffffffffffffffffffffffffffffffffffffff1673ffffffffffffffffffffffffffffffffffffffff16815260200190815260200160002060008154809291906101e490610695565b9190505550600160008373ffffffffffffffffffffffffffffffffffffffff1673ffffffffffffffffffffffffffffffffffffffff1681526020019081526020016000206000815480929190610239906106bf565b9190505550808273ffffffffffffffffffffffffffffffffffffffff168473ffffffffffffffffffffffffffffffffffffffff167fddf252ad1be2c89b69c2b068fc378daa952ba7f163c4a11628f55a4df523b3ef60405160405180910390a4505050565b600080600083815260200190815260200160002060009054906101000a900473ffffffffffffffffffffffffffffffffffffffff169050919050565b6000600160008373ffffffffffffffffffffffffffffffffffffffff1673ffffffffffffffffffffffffffffffffffffffff168152602001908152602001600020549050919050565b61032d3382610330565b50565b806002600082815260200190815260200160002060009054906101000a900460ff161561035c57600080fd5b82600073ffffffffffffffffffffffffffffffffffffffff168173ffffffffffffffffffffffffffffffffffffffff16141561039757600080fd5b8360008085815260200190815260200160002060006101000a81548173ffffffffffffffffffffffffffffffffffffffff021916908373ffffffffffffffffffffffffffffffffffffffff16021790555060018060008673ffffffffffffffffffffffffffffffffffffffff1673ffffffffffffffffffffffffffffffffffffffff16815260200190815260200160002060008282546104379190610708565b9250508190555060016002600085815260200190815260200160002060006101000a81548160ff021916908315150217905550823373ffffffffffffffffffffffffffffffffffffffff16600073ffffffffffffffffffffffffffffffffffffffff167fddf252ad1be2c89b69c2b068fc378daa952ba7f163c4a11628f55a4df523b3ef60405160405180910390a450505050565b600080fd5b600073ffffffffffffffffffffffffffffffffffffffff82169050919050565b60006104fc826104d1565b9050919050565b61050c816104f1565b811461051757600080fd5b50565b60008135905061052981610503565b92915050565b6000819050919050565b6105428161052f565b811461054d57600080fd5b50565b60008135905061055f81610539565b92915050565b60008060006060848603121561057e5761057d6104cc565b5b600061058c8682870161051a565b935050602061059d8682870161051a565b92505060406105ae86828701610550565b9150509250925092565b6000602082840312156105ce576105cd6104cc565b5b60006105dc84828501610550565b91505092915050565b6105ee816104f1565b82525050565b600060208201905061060960008301846105e5565b92915050565b600060208284031215610625576106246104cc565b5b60006106338482850161051a565b91505092915050565b6106458161052f565b82525050565b6000602082019050610660600083018461063c565b92915050565b7f4e487b7100000000000000000000000000000000000000000000000000000000600052601160045260246000fd5b60006106a08261052f565b915060008214156106b4576106b3610666565b5b600182039050919050565b60006106ca8261052f565b91507fffffffffffffffffffffffffffffffffffffffffffffffffffffffffffffffff8214156106fd576106fc610666565b5b600182019050919050565b60006107138261052f565b915061071e8361052f565b9250827fffffffffffffffffffffffffffffffffffffffffffffffffffffffffffffffff0382111561075357610752610666565b5b82820190509291505056fea2646970667358221220f562f4045e08565786c2823973c8d47eac02781ffd8a1967fa645d18e0a6616d64736f6c63430008090033",
  "immutableReferences": {},
  "source": "// SPDX-License-Identifier: UNLICENSED\r\npragma solidity ^0.8.6;\r\n\r\nimport \"./myNftErc721.sol\";\r\n\r\ncontract MyNftToken is myNftErc721 {\r\n    // Token name\r\n    string private _name;\r\n\r\n    // Token symbol\r\n    string private _symbol;\r\n\r\n    constructor() {\r\n        _name = \"myNFTToken\";\r\n        _symbol = \"myNFTSymbol\";\r\n    }\r\n\r\n    function mint(uint256 _tokenId) external {\r\n        _mint(msg.sender, _tokenId);\r\n    }\r\n}\r\n",
  "sourcePath": "C:\\Users\\hp\\Documents\\GitHub\\fisrtTask-ShaheerAndErmal\\contracts\\MyNftToken.sol",
  "compiler": {
    "name": "solc",
    "version": "0.8.9+commit.e5eed63a.Emscripten.clang"
  },
  "schemaVersion": "3.4.3",
  "updatedAt": "2021-11-02T18:46:31.842Z",
  "devdoc": {
    "kind": "dev",
    "methods": {},
    "version": 1
  },
  "userdoc": {
    "kind": "user",
    "methods": {},
    "version": 1
  }
}