{
  "contractName": "myNftErc721",
  "abi": [
    {
      "anonymous": false,
      "inputs": [
        {
          "indexed": true,
          "internalType": "address",
          "name": "_from",
          "type": "address"
        },
        {
          "indexed": true,
          "internalType": "address",
          "name": "_to",
          "type": "address"
        },
        {
          "indexed": true,
          "internalType": "uint256",
          "name": "_tokenId",
          "type": "uint256"
        }
      ],
      "name": "Transfer",
      "type": "event"
    },
    {
      "inputs": [
        {
          "internalType": "address",
          "name": "_owner",
          "type": "address"
        }
      ],
      "name": "balanceOf",
      "outputs": [
        {
          "internalType": "uint256",
          "name": "",
          "type": "uint256"
        }
      ],
      "stateMutability": "view",
      "type": "function"
    },
    {
      "inputs": [
        {
          "internalType": "uint256",
          "name": "_tokenId",
          "type": "uint256"
        }
      ],
      "name": "ownerOf",
      "outputs": [
        {
          "internalType": "address",
          "name": "",
          "type": "address"
        }
      ],
      "stateMutability": "view",
      "type": "function"
    },
    {
      "inputs": [
        {
          "internalType": "address",
          "name": "_from",
          "type": "address"
        },
        {
          "internalType": "address",
          "name": "_to",
          "type": "address"
        },
        {
          "internalType": "uint256",
          "name": "_tokenId",
          "type": "uint256"
        }
      ],
      "name": "_transfer",
      "outputs": [],
      "stateMutability": "payable",
      "type": "function"
    },
    {
      "inputs": [
        {
          "internalType": "string",
          "name": "_metadataurl",
          "type": "string"
        },
        {
          "internalType": "uint256",
          "name": "_tokenId",
          "type": "uint256"
        }
      ],
      "name": "tokenURI",
      "outputs": [
        {
          "internalType": "string",
          "name": "",
          "type": "string"
        }
      ],
      "stateMutability": "pure",
      "type": "function"
    }
  ],
  "bytecode": "0x608060405234801561001057600080fd5b506109fe806100206000396000f3fe60806040526004361061003f5760003560e01c806330e0789e146100445780636352211e1461006057806370a082311461009d5780639b330cb9146100da575b600080fd5b61005e60048036038101906100599190610496565b610117565b005b34801561006c57600080fd5b50610087600480360381019061008291906104e9565b6102b2565b6040516100949190610525565b60405180910390f35b3480156100a957600080fd5b506100c460048036038101906100bf9190610540565b6102ee565b6040516100d1919061057c565b60405180910390f35b3480156100e657600080fd5b5061010160048036038101906100fc91906106dd565b610337565b60405161010e91906107c1565b60405180910390f35b8273ffffffffffffffffffffffffffffffffffffffff16610137826102b2565b73ffffffffffffffffffffffffffffffffffffffff161461015757600080fd5b8160008083815260200190815260200160002060006101000a81548173ffffffffffffffffffffffffffffffffffffffff021916908373ffffffffffffffffffffffffffffffffffffffff160217905550600160008473ffffffffffffffffffffffffffffffffffffffff1673ffffffffffffffffffffffffffffffffffffffff16815260200190815260200160002060008154809291906101f890610812565b9190505550600160008373ffffffffffffffffffffffffffffffffffffffff1673ffffffffffffffffffffffffffffffffffffffff168152602001908152602001600020600081548092919061024d9061083c565b9190505550808273ffffffffffffffffffffffffffffffffffffffff168473ffffffffffffffffffffffffffffffffffffffff167fddf252ad1be2c89b69c2b068fc378daa952ba7f163c4a11628f55a4df523b3ef60405160405180910390a4505050565b600080600083815260200190815260200160002060009054906101000a900473ffffffffffffffffffffffffffffffffffffffff169050919050565b6000600160008373ffffffffffffffffffffffffffffffffffffffff1673ffffffffffffffffffffffffffffffffffffffff168152602001908152602001600020549050919050565b60608273__Uint2Str______________________________63f76f950e846040518263ffffffff1660e01b81526004016103719190610894565b60006040518083038186803b15801561038957600080fd5b505af415801561039d573d6000803e3d6000fd5b505050506040513d6000823e3d601f19601f820116820180604052508101906103c6919061091f565b6040516020016103d79291906109a4565b604051602081830303815290604052905092915050565b6000604051905090565b600080fd5b600080fd5b600073ffffffffffffffffffffffffffffffffffffffff82169050919050565b600061042d82610402565b9050919050565b61043d81610422565b811461044857600080fd5b50565b60008135905061045a81610434565b92915050565b6000819050919050565b61047381610460565b811461047e57600080fd5b50565b6000813590506104908161046a565b92915050565b6000806000606084860312156104af576104ae6103f8565b5b60006104bd8682870161044b565b93505060206104ce8682870161044b565b92505060406104df86828701610481565b9150509250925092565b6000602082840312156104ff576104fe6103f8565b5b600061050d84828501610481565b91505092915050565b61051f81610422565b82525050565b600060208201905061053a6000830184610516565b92915050565b600060208284031215610556576105556103f8565b5b60006105648482850161044b565b91505092915050565b61057681610460565b82525050565b6000602082019050610591600083018461056d565b92915050565b600080fd5b600080fd5b6000601f19601f8301169050919050565b7f4e487b7100000000000000000000000000000000000000000000000000000000600052604160045260246000fd5b6105ea826105a1565b810181811067ffffffffffffffff82111715610609576106086105b2565b5b80604052505050565b600061061c6103ee565b905061062882826105e1565b919050565b600067ffffffffffffffff821115610648576106476105b2565b5b610651826105a1565b9050602081019050919050565b82818337600083830152505050565b600061068061067b8461062d565b610612565b90508281526020810184848401111561069c5761069b61059c565b5b6106a784828561065e565b509392505050565b600082601f8301126106c4576106c3610597565b5b81356106d484826020860161066d565b91505092915050565b600080604083850312156106f4576106f36103f8565b5b600083013567ffffffffffffffff811115610712576107116103fd565b5b61071e858286016106af565b925050602061072f85828601610481565b9150509250929050565b600081519050919050565b600082825260208201905092915050565b60005b83811015610773578082015181840152602081019050610758565b83811115610782576000848401525b50505050565b600061079382610739565b61079d8185610744565b93506107ad818560208601610755565b6107b6816105a1565b840191505092915050565b600060208201905081810360008301526107db8184610788565b905092915050565b7f4e487b7100000000000000000000000000000000000000000000000000000000600052601160045260246000fd5b600061081d82610460565b91506000821415610831576108306107e3565b5b600182039050919050565b600061084782610460565b91507fffffffffffffffffffffffffffffffffffffffffffffffffffffffffffffffff82141561087a576108796107e3565b5b600182019050919050565b61088e81610460565b82525050565b60006020820190506108a96000830184610885565b92915050565b60006108c26108bd8461062d565b610612565b9050828152602081018484840111156108de576108dd61059c565b5b6108e9848285610755565b509392505050565b600082601f83011261090657610905610597565b5b81516109168482602086016108af565b91505092915050565b600060208284031215610935576109346103f8565b5b600082015167ffffffffffffffff811115610953576109526103fd565b5b61095f848285016108f1565b91505092915050565b600081905092915050565b600061097e82610739565b6109888185610968565b9350610998818560208601610755565b80840191505092915050565b60006109b08285610973565b91506109bc8284610973565b9150819050939250505056fea2646970667358221220343104afdfa8bed6bcae035434a42d566621b7ac5aa366a892a74d3770cccafa64736f6c63430008090033",
  "immutableReferences": {},
  "source": "// SPDX-License-Identifier: UNLICENSED\r\npragma solidity ^0.8.6;\r\n\r\nimport \"../libraries/Uint2str.sol\";\r\n\r\ncontract myNftErc721 {\r\n    using Uint2Str for string;\r\n    // Mapping tokend Id to owners\r\n    mapping(uint256 => address) private _owners;\r\n\r\n    // Mapping owner address to token count\r\n    mapping(address => uint256) private _balances;\r\n\r\n    mapping(uint256 => bool) tokenExist;\r\n\r\n    // Check if we can access the length from front-end\r\n    // Total number of tokens in block chain\r\n    // uint public totalSupply =0;\r\n\r\n    event Transfer(\r\n        address indexed _from,\r\n        address indexed _to,\r\n        uint256 indexed _tokenId\r\n    );\r\n\r\n    modifier uniqueToken(uint256 _tokenId) {\r\n        require(!tokenExist[_tokenId]);\r\n        _;\r\n    }\r\n\r\n    modifier notZeroAddress(address _to) {\r\n        require(_to != address(0));\r\n        _;\r\n    }\r\n\r\n    function balanceOf(address _owner) external view returns (uint256) {\r\n        return _balances[_owner];\r\n    }\r\n\r\n    function ownerOf(uint256 _tokenId) public view returns (address) {\r\n        return _owners[_tokenId];\r\n    }\r\n\r\n    function _transfer(\r\n        address _from,\r\n        address _to,\r\n        uint256 _tokenId\r\n    ) external payable {\r\n        require(ownerOf(_tokenId) == _from);\r\n        _owners[_tokenId] = _to;\r\n        _balances[_from]--;\r\n        _balances[_to]++;\r\n\r\n        emit Transfer(_from, _to, _tokenId);\r\n    }\r\n\r\n    function _mint(address _to, uint256 _tokenId)\r\n        internal\r\n        uniqueToken(_tokenId)\r\n        notZeroAddress(_to)\r\n    {\r\n        _owners[_tokenId] = _to;\r\n        _balances[_to] += 1;\r\n        tokenExist[_tokenId] = true;\r\n        // totalSupply++;\r\n\r\n        emit Transfer(address(0), msg.sender, _tokenId);\r\n    }\r\n\r\n    function tokenURI(string memory _metadataurl, uint256 _tokenId)\r\n        public\r\n        pure\r\n        returns (string memory)\r\n    {\r\n        return\r\n            string(abi.encodePacked(_metadataurl, Uint2Str.uint2str(_tokenId)));\r\n    }\r\n}\r\n",
  "sourcePath": "C:\\Users\\hp\\Documents\\GitHub\\fisrtTask-ShaheerAndErmal\\contracts\\myNftErc721.sol",
  "compiler": {
    "name": "solc",
    "version": "0.8.9+commit.e5eed63a.Emscripten.clang"
  },
  "schemaVersion": "3.4.3",
  "updatedAt": "2021-11-02T20:39:15.389Z",
  "devdoc": {
    "kind": "dev",
    "methods": {},
    "version": 1
  },
  "userdoc": {
    "kind": "user",
    "methods": {},
    "version": 1
  }
}