{
  "contractName": "Uint2Str",
  "abi": [
    {
      "inputs": [
        {
          "internalType": "uint256",
          "name": "_i",
          "type": "uint256"
        }
      ],
      "name": "uint2str",
      "outputs": [
        {
          "internalType": "string",
          "name": "_uintAsString",
          "type": "string"
        }
      ],
      "stateMutability": "pure",
      "type": "function"
    }
  ],
  "bytecode": "0x610554610053600b82828239805160001a607314610046577f4e487b7100000000000000000000000000000000000000000000000000000000600052600060045260246000fd5b30600052607381538281f3fe73000000000000000000000000000000000000000030146080604052600436106100355760003560e01c8063f76f950e1461003a575b600080fd5b610054600480360381019061004f919061022e565b61006a565b60405161006191906102f4565b60405180910390f35b606060008214156100b2576040518060400160405280600181526020017f300000000000000000000000000000000000000000000000000000000000000081525090506101ee565b600082905060005b600082146100e45780806100cd90610345565b915050600a826100dd91906103bd565b91506100ba565b60008167ffffffffffffffff811115610100576100ff6103ee565b5b6040519080825280601f01601f1916602001820160405280156101325781602001600182028036833780820191505090505b50905060008290505b600086146101e657600181610150919061041d565b90506000600a808861016291906103bd565b61016c9190610451565b87610177919061041d565b603061018391906104b8565b905060008160f81b9050808484815181106101a1576101a06104ef565b5b60200101907effffffffffffffffffffffffffffffffffffffffffffffffffffffffffffff1916908160001a905350600a886101dd91906103bd565b9750505061013b565b819450505050505b919050565b600080fd5b6000819050919050565b61020b816101f8565b811461021657600080fd5b50565b60008135905061022881610202565b92915050565b600060208284031215610244576102436101f3565b5b600061025284828501610219565b91505092915050565b600081519050919050565b600082825260208201905092915050565b60005b8381101561029557808201518184015260208101905061027a565b838111156102a4576000848401525b50505050565b6000601f19601f8301169050919050565b60006102c68261025b565b6102d08185610266565b93506102e0818560208601610277565b6102e9816102aa565b840191505092915050565b6000602082019050818103600083015261030e81846102bb565b905092915050565b7f4e487b7100000000000000000000000000000000000000000000000000000000600052601160045260246000fd5b6000610350826101f8565b91507fffffffffffffffffffffffffffffffffffffffffffffffffffffffffffffffff82141561038357610382610316565b5b600182019050919050565b7f4e487b7100000000000000000000000000000000000000000000000000000000600052601260045260246000fd5b60006103c8826101f8565b91506103d3836101f8565b9250826103e3576103e261038e565b5b828204905092915050565b7f4e487b7100000000000000000000000000000000000000000000000000000000600052604160045260246000fd5b6000610428826101f8565b9150610433836101f8565b92508282101561044657610445610316565b5b828203905092915050565b600061045c826101f8565b9150610467836101f8565b9250817fffffffffffffffffffffffffffffffffffffffffffffffffffffffffffffffff04831182151516156104a05761049f610316565b5b828202905092915050565b600060ff82169050919050565b60006104c3826104ab565b91506104ce836104ab565b92508260ff038211156104e4576104e3610316565b5b828201905092915050565b7f4e487b7100000000000000000000000000000000000000000000000000000000600052603260045260246000fdfea26469706673582212202048709a99f307b179d33de897ff7cd06aa54356a09de1c12b51e25132b3896264736f6c63430008090033",
  "immutableReferences": {},
  "source": "// SPDX-License-Identifier: UNLICENSED\npragma solidity ^0.8.6;\n\nlibrary Uint2Str {\n    function uint2str(uint256 _i)\n        public\n        pure\n        returns (string memory _uintAsString)\n    {\n        if (_i == 0) {\n            return \"0\";\n        }\n        uint256 j = _i;\n        uint256 len;\n        while (j != 0) {\n            len++;\n            j /= 10;\n        }\n        bytes memory bstr = new bytes(len);\n        uint256 k = len;\n        while (_i != 0) {\n            k = k - 1;\n            uint8 temp = (48 + uint8(_i - (_i / 10) * 10));\n            bytes1 b1 = bytes1(temp);\n            bstr[k] = b1;\n            _i /= 10;\n        }\n        return string(bstr);\n    }\n}\n",
  "sourcePath": "C:\\Users\\hp\\Documents\\GitHub\\fisrtTask-ShaheerAndErmal\\libraries\\Uint2str.sol",
  "compiler": {
    "name": "solc",
    "version": "0.8.9+commit.e5eed63a.Emscripten.clang"
  },
  "schemaVersion": "3.4.3",
  "updatedAt": "2021-11-02T20:39:15.397Z",
  "devdoc": {
    "kind": "dev",
    "methods": {},
    "version": 1
  },
  "userdoc": {
    "kind": "user",
    "methods": {},
    "version": 1
  }
}